:020000040800F2
:10000000C85E0020791B00082106000823060008AE
:100010002506000827060008290600080000000041
:100020000000000000000000000000003D02000889
:100030002B06000800000000810200088919000852
:10004000931B0008931B0008931B0008931B0008D8
:10005000931B0008931B0008931B0008931B0008C8
:10006000931B0008931B0008931B0008931B0008B8
:10007000931B0008931B0008931B0008931B0008A8
:10008000931B0008931B0008931B0008931B000898
:10009000931B0008931B0008931B0008931B000888
:1000A000931B0008931B0008931B0008931B000878
:1000B000931B0008931B0008931B0008931B000868
:1000C000931B0008931B0008931B0008931B000858
:1000D000931B00080F1B0008931B0008931B0008CC
:1000E000931B0008931B0008931B0008931B000838
:1000F000931B0008931B0008931B0008931B000828
:10010000931B0008931B0008931B0008931B000817
:10011000931B0008931B0008931B0008931B000807
:10012000931B0008931B0008931B0008931B0008F7
:1001300000F002F800F073F80AA090E8000C824486
:100140008344AAF10107DA4501D100F068F8AFF263
:10015000090EBAE80F0013F0010F18BFFB1A43F0A5
:100160000103184704880000248800000A444FF067
:10017000000C10F8013B13F0070408BF10F8014B06
:100180001D1108BF10F8015B641E05D010F8016B4B
:10019000641E01F8016BF9D113F0080F1EBF10F8AF
:1001A000014BAD1C0C1B09D16D1E58BF01F801CBD2
:1001B000FAD505E014F8016B01F8016B6D1EF9D555
:1001C0009142D6D37047000000230024002500266A
:1001D000103A28BF78C1FBD8520728BF30C148BFAA
:1001E0000B607047662907F0C986642905F0EA8527
:1001F000752905F0E785632906F0CB81732906F0A0
:10020000D081002070471FB506F036FA04000020A8
:10021000002106F0AFFFE0601FBD10B510BD06F075
:1002200057FB1146FFF7EFFF00F046F906F075FBAC
:1002300003B4FFF7F2FF03BC01F012FC224B196874
:100240000868B0E8F00F80F30988BFF36F8F4FF0B4
:10025000000080F311884EF00D0E70470000000082
:1002600006480068006880F3088862B661B6BFF38C
:100270004F8FBFF36F8F00DF00BF00BF08ED00E0BE
:10028000EFF30980BFF36F8F0F4B1A6820E9F00F6F
:10029000106008B54FF0500080F31188BFF34F8F06
:1002A000BFF36F8F04F07EF94FF0000080F31188E8
:1002B000BDE8084019680868B0E8F00F80F30988C5
:1002C000BFF36F8F704700BFDC030020EFF30580A2
:1002D000704700008F4C4FF496758F4E8F4F26E07D
:1002E0008FA005F025FD012000F0EAFA012120464B
:1002F00001F07BFD0221204601F077FD2021204600
:1003000001F075FD284601F07FFB002000F0D8FACF
:100310000121204601F069FD0221204601F065FD22
:100320002021204601F061FD284601F06DFBB069F7
:10033000B842D5DC0A2004F069F8F8E7764F7D4E24
:100340004FF47A751C370EE07BA005F0F1FC052414
:100350002146304602F0EBFD284601F055FB641DB6
:10036000A4B2192CF4D9B8780A28EDD80A2004F0E0
:100370004DF8F8E708B5684C00261C34664D734FFD
:10038000009600F0B4FB286107F0FCFC024670A167
:10039000684605F0D9FC00210C236A46084600F0A7
:1003A000C5FE5D481C3000F0FDFB012840D0A67062
:1003B000E6700C236AA20121002000F0B7FE0C2396
:1003C0006AA20221002000F0B1FE5348143000F070
:1003D0008BFC686907F0E2FB02460B4666A16846A3
:1003E00005F0B2FC0C236A460321002000F09EFEBB
:1003F00000F0DEFCA86107F0D1FB02460B4663A0CB
:1004000005F096FC398866A005F092FCA86907F013
:10041000B9FC024669A1684605F096FC0C236A46C1
:100420000421002000F082FE642003F0EFFFA8E723
:10043000E378A27866A1684605F086FC0C236A463C
:100440000121002000F072FE6378227864A16846E2
:1004500005F07AFC0C236A46B3E71CB505F0D0FA28
:100460002D490220091D0023CDE90001802260A151
:10047000AFF2FF0003F008FE2749032008310023F4
:10048000CDE9000180225DA1AFF24F1003F0FCFD29
:10049000214904200C310023CDE9000180225AA11A
:1004A000AFF2CF1003F0F0FD1B48006803F017FE19
:1004B000BDE81C4005F0BEBA1CB54FF4407001F019
:1004C0007BFB01F06BFA4FF4E13001F0D3FA00F05E
:1004D00059F900F0B0F901F06FF900F0C5FB01F037
:1004E00039FA00F0D5F900F0E6FA00F015FB01F05A
:1004F000D1F800F065FD084901200023CDE9000195
:10050000020244A1AFF2AD0003F0BEFD04F062F9B7
:1005100000201CBD000C01400000002000004843EA
:100520006D71325F7461736B2072756E6E696E6788
:100530000D0A000000040040736739305F74617376
:100540006B2072756E6E696E670D0A00BA0300202B
:100550006C696768743A202564206C78202020003C
:1005600074656D70653A20303030000068756D69D3
:10057000203A20303030000064697374203A20251E
:100580002E326620636D2020000000004D51325F46
:1005900076616C7565203D2025660D0A000000001F
:1005A0004144435F436F6E76657274656456616C57
:1005B0007565203D2025640D0A000000434F202072
:1005C000203A2025642070706D202020000000005B
:1005D00074656D70653A2025642E25640000000066
:1005E00068756D693A202025642E25642025000059
:1005F000686172645F7461736B0000007367393007
:100600005F7461736B0000006D71325F7461736BB6
:100610000000000073746172745F7461736B00009A
:100620007047FEE7FEE7FEE7FEE770470CB50022E5
:100630004C4800920192016841F4803101604FF40E
:10064000A063016801F4003101910099491C0091F7
:10065000019911B900999942F3D10168890333D501
:100660000121019140490A6842F010020A600A68BB
:1006700022F003020A600A6842F002020A6041683E
:10068000416041684160416841F480614160416876
:1006900021F47C114160416841F4E8114160016836
:1006A00041F08071016001688901FCD5416821F049
:1006B00003014160416841F0020141604168C1F3BA
:1006C00081010229FAD10CBD01920CBD254810B55B
:1006D000016841F0010101604168244A1140416014
:1006E0000168234A11400160016821F48021016002
:1006F000416821F4FE0141604FF41F018160FFF762
:1007000095FF1C494FF00060086010BD154A10B5F8
:100710005068194B10F00C01184803D0042901D07F
:10072000082901D0036012E05168536801F4701188
:100730004FF0020413F4803F04EB914102D0536860
:100740009B0301D50E4B00E00B4B594301605168F0
:100750000A4AC1F30311121D515C0268CA400260CB
:1007600010BD000000100240002002400000FFF811
:10077000FFFFF6FE08ED00E000127A0024000020E2
:1007800000093D0038B50121082001F0ACFC012032
:10079000ADF8000010208DF803000320104C8DF8F8
:1007A00002006946204601F0B6FA0221ADF80010B9
:1007B0006946204601F0AFFA2021ADF800106946E5
:1007C000204601F0A8FA0121204601F00EFB02218B
:1007D000204601F00AFB2021204601F006FB38BD2F
:1007E000000C014001B5009801E0401E0090002877
:1007F000FBD108BD08B50121042001F074FC0120E3
:10080000ADF8000004208DF8030069461E4801F091
:1008100082FA08BD08B50121102001F064FC4FF4F4
:100820000050ADF8000004208DF803006946174819
:1008300001F071FA08BD10B5FFF7DCFFBDE810400C
:10084000E8E770B5104C0121204601F0BAFA012802
:1008500009D00E4D64142146284601F0B2FA012851
:1008600009D0002070BD0121204601F0AAFA01281C
:10087000F9D0012070BD2146284601F0A2FA0128D6
:10088000F9D0022070BD00000008014000100140B6
:1008900008B50121042001F026FC4FF48070ADF86A
:1008A000000010208DF8030003208DF80200694637
:1008B000084801F030FA08490020C1F8A00108BD3D
:1008C000054A0649012801D0002802D1C2F8A0013A
:1008D00008707047000801400000214238000020E5
:1008E00070B58B48802606604025056000F009F948
:1008F000874C241D266000F004F92560BDE8704097
:1009000000F0FFB870B582488024001D0460804D5F
:100910004020286000F0F5F82C6070BD2DE9F0470C
:10092000DFF8EC9100247A4E054609F104094027CE
:100930004FF080082806404601D5306001E0C9F834
:10094000000000F0DEF8376000F0DBF8C9F8007056
:10095000072C01D1C6F800806806050E00F0D1F81A
:10096000641CE4B2082CE5D3BDE8F0872DE9F0471C
:100970000024674FDFF898812546A8F10808402633
:1009800007F104096006040E3E6000F0BAF8D8F8DA
:100990000000000601D5641CE4B2C9F8006000F054
:1009A000B0F86D1CEDB2082DECD32046DCE770B535
:1009B000574C8020206000F0A4F84025256000F00E
:1009C000A0F8534808380068000601D5012400E06B
:1009D00000244F48001D056000F093F8204670BDCC
:1009E0002DE9F0414A4E8025361D356000F089F82A
:1009F000371F40243C6000F084F8346000F081F838
:100A00003D60BDE8F08170B5414D8020286000F068
:100A100078F840242C6000F074F8281D0460BDE8CC
:100A2000704000F06EB810B50446FFF759FF20463D
:100A3000FFF774FFFFF7BBFF0446FFF763FF204695
:100A400010BD10B50446FFF74BFF4620FFF766FFC9
:100A5000FFF7ADFF012809D02046FFF75FFFFFF742
:100A6000A6FF012803D0FFF74DFF002010BD022094
:100A700010BD10B5FFF734FF4720FFF74FFFFFF71A
:100A800096FF01280FD0FFF771FF0446FFF7A8FF7C
:100A9000FFF76CFF00EB042084B2FFF7B4FFFFF711
:100AA00031FF204610BD002010BD0120C9E7002005
:100AB000C7E70720C5E708B50121082001F013FBAF
:100AC000C020ADF8000003208DF8020014208DF83E
:100AD00003000F486946103801F01DF9FFF712FFB7
:100AE0000120FFF7AEFFBDE808401020A9E710B5D0
:100AF000FFF7BFFF07F062F9BDE81040054907F0B6
:100B00007FB80020401CC0B20A28FBD37047000009
:100B1000100C0140CDCC8C3F38B50121402001F0B4
:100B2000E2FA4020ADF8000010208DF80300032009
:100B30004C4C8DF802006946204601F0ECF840214B
:100B4000204601F052F938BD2DE9F0410025454F0E
:100B50002C4601264021384601F033F90028F9D00F
:100B6000282000F039FF4021384601F02AF90128F9
:100B70000BD0C4F1070006FA00F08543641CE4B210
:100B8000082CE7D32846BDE8F0814021384601F023
:100B900018F90128F9D0C4F1070006FA00F0C0B234
:100BA0000543EBE738B5044600F04DF82D4D4021E4
:100BB000284601F01CF9122000F026FF40212846AB
:100BC00001F013F91E2000F007FF4020ADF80000EF
:100BD00048208DF803006946284601F09CF8402122
:100BE000284601F0EEF860BB4021284601F0E9F804
:100BF0000028F9D04021284601F0E3F80128F9D077
:100C0000FFF7A2FF2070FFF79FFF6070FFF79CFFC8
:100C1000A070FFF799FFE070FFF796FF207100F0DA
:100C200012F84021284601F0E0F820786178E27857
:100C30000844A178114408442179884201D1012057
:100C400038BD002038BD08B54020ADF800001020A8
:100C50008DF8030003208DF802006946014801F079
:100C60005AF808BD001801401FB50121202001F0ED
:100C70003AFA0121102001F03FFA0120ADF80000FE
:100C80008DF8020010203C4C8DF803006946204688
:100C900001F041F80121204601F0A9F80221ADF848
:100CA000001028218DF803106946204601F033F822
:100CB0000221204601F09BF84FF6FF70ADF80800C6
:100CC0004720ADF8040000202C4CADF80A008DF848
:100CD0000C00ADF8060001A9204601F07FFC0021C0
:100CE000204601F023FF1FBD70B5234D04460221AD
:100CF000284601F066F80128F9D00121284601F0C4
:100D000074F80F2000F068FE0121284601F06FF80A
:100D10000221284601F055F80028F9D0174E00218D
:100D2000304602F000F90121304601F0FFFE0221B9
:100D3000284601F046F80128F9D00021304601F09C
:100D4000F5FE3C2000F060FE304602F00AF94FF458
:100D5000AA71484306F0DEFC0022094B06F00EFBA8
:100D60004FF0FF3207F03EF90022064B06F022FD5D
:100D700006F016FA206070BD00140140001000401B
:100D800080842E41000059402DE9F0410025114F8B
:100D90000A262C4638880544052000F035FE641CE0
:100DA000E4B2B442F6D3B5FBF6F080B2BDE8F08110
:100DB00010B5FFF7E9FF07F001F8074907F012F84F
:100DC0006FF00B0107F03CF9BDE81040034907F054
:100DD00009B80000BA030020333353400000C84272
:100DE00070B54FF480742146FE4D284600F0FDFF9B
:100DF00066003146284600F0F8FF3146284600F0EC
:100E0000F6FF21462846BDE8704000F0F0BF70B5FF
:100E1000F44C4FF48071204600F0E7FF6515294639
:100E2000204600F0E4FF29462046BDE8704000F06F
:100E3000DCBF70B5EB4D4FF480742146284600F0BE
:100E4000D4FF21462846BDE8704000F0D0BF2DE910
:100E5000F041E44F04464FF480763146384600F0C6
:100E6000C6FF00254FF4007804F08000802841463A
:100E7000384611D000F0BBFF6006040E31463846FC
:100E800000F0B3FF3146384600F0B1FF6D1CEDB203
:100E9000082DE9D3BDE8F08100F0A7FFECE710B51D
:100EA0000446FFF79DFF7820FFF7D1FFFFF7C1FF52
:100EB0000020FFF7CCFFFFF7BCFF2046FFF7C7FF7E
:100EC000FFF7B7FFBDE81040A1E710B50446FFF7F4
:100ED00087FF7820FFF7BBFFFFF7ABFF4020FFF74E
:100EE000B6FFFFF7A6FF2046FFF7B1FFFFF7A1FF10
:100EF000BDE810408BE7C0B201B1E6E7CFE770B5BF
:100F000006460025002105F1B000FFF7F4FF00219F
:100F10000846FFF7F0FF00211020FFF7ECFF002448
:100F200001213046FFF7E7FF641CE4B2802CF7D3C1
:100F30006D1CEDB2082DE5D370BD002806D041F63A
:100F400065021146491EFDD1401EFAD1704704E0EA
:100F50000021491CC9B27B29FBD3401EF8D270473F
:100F600010B50A460446002102F1B000FFF7C3FFA6
:100F7000102040EA14100021FFF7BDFF04F00F001D
:100F8000BDE810400021B6E710B500218D20FFF725
:100F9000B2FF00211420FFF7AEFF0021BDE8104092
:100FA000AF20A8E710B500218D20FFF7A4FF002196
:100FB0001020FFF7A0FF0021BDE81040AE209AE707
:100FC00070B50025002105F1B000FFF794FF002166
:100FD0000846FFF790FF00211020FFF78CFF002448
:100FE00001210020FFF787FF641CE4B2802CF7D3B7
:100FF0006D1CEDB2082DE5D370BD70B50025002144
:1010000005F1B000FFF777FF00210846FFF773FFF7
:1010100000211020FFF76FFF002401210846FFF791
:101020006AFF641CE4B2802CF7D36D1CEDB2082D6E
:10103000E5D370BD2DE9F041203A00240F468046EB
:10104000D5B27F2803D900208F1C8046FFB2102B19
:1010500039460FD0FFF784FF634905EB450001EBEC
:1010600040050121285DFFF746FF641CE4B2062C11
:10107000F7D30FE7FFF774FF5C4E04EB0510012177
:10108000305CFFF738FF641CE4B2082CF5D37F1CFA
:10109000F9B24046FFF764FF002404EB051030442A
:1010A0000121007AFFF727FF641CE4B2082CF4D377
:1010B000F0E60346012000E05843491EC9B2FBD2C6
:1010C00070472DE9F05F0027DDF828A01D46914606
:1010D0008B4680463C464FEA5A0623E0281B401EBA
:1010E000C1B20A20FFF7E5FFB9FBF0F00A21B0FB1F
:1010F000F1F201FB120027B9691E8C4201DA38B106
:1011000001273030C2B206FB0480C0B2534604E06F
:1011100006FB0480C0B2534620225946FFF78AFFDF
:10112000641CE4B2AC42D9D3BDE8F09F2DE9F04194
:101130001F4615460E4604460CE03B463146204607
:10114000FFF778FF0834E4B2782C02D90024B61CEB
:10115000F6B26D1C2A78002AEFD19BE62DE9F0410A
:1011600015460E460746FFF7FBFE2148002400EB1C
:1011700085150121285DFFF7BEFE641CE4B2102C2A
:10118000F7D3761CF1B23846FFF7EAFE002428199F
:10119000012190F82000FFF7AEFE641CE4B2102C91
:1011A000F5D377E62DE9F0471F4690460E46824676
:1011B0000025DDF8209011E031465046FFF7D0FEC3
:1011C000544607E019F8050001216D1CFFF793FE56
:1011D000641CE4B24445F5D3761CF6B2BE42EBD3B0
:1011E000BDE8F087000C0140BC800008E4820008E4
:1011F000390000202DE9FF5F002084B09846154695
:101200000124814600900190024603460290DDF8D9
:1012100048B027462846414606F090FA284602D2B2
:1012200088F0004100E0414606F000FA064606F06C
:101230005AFA2A46434606F0BBFB0022FE4B06F054
:10124000B9FA06F023FA01460A2004E007EB870208
:101250005700641CE4B296FBF0F292FBF7F2002A0E
:10126000F4D142F2107296FBF2F292FBF0F300FB23
:1012700013228DF800204FF47A7296FBF2F393FB61
:10128000F0F700FB17338DF80130642396FBF3F77A
:1012900097FBF0FC00FB1C778DF8027096FBF0F7D3
:1012A00097FBF0FC00FB1C778DF8037096FBF0F7C2
:1012B000B1FBF2F200FB17668DF80460B2FBF0F6AA
:1012C00000FB16224FF02E0A8DF805A08DF806209F
:1012D000B1FBF3F2B2FBF0F300FB13228DF8072011
:1012E000B1FBF0F2B2FBF0F300FB13228DF8082003
:1012F000B1FBF0F200FB12108DF809000DEB0B07AB
:101300006E4687F806900020315C30313154401C25
:101310000A28F9DB002213462846414606F00EFA59
:1013200005D2641CE4B2C4F105012D2070548DF87F
:1013300005A0C4F1050087F806908219DDE90410C4
:101340000C23FFF7F3FE08B0EEE62DE9FF5F84B053
:101350004FF00008C806DDE912BA4FEA10691646D8
:101360001F46CDF80080CDF80480012410461946B0
:10137000CDF8088006F05AF9054606F0CBF932465A
:101380003B4606F015FB0022AB4B06F013FA06F0C5
:101390007DF901460A2002E004EB84025400B5FB0B
:1013A000F0F2A242F8D242F21072B5FBF2F2B2FBB6
:1013B000F0F300FB13228DF800204FF47A74B5FB94
:1013C000F4F2B2FBF0F300FB13228DF80120642647
:1013D000B5FBF6F2B2FBF0F300FB13228DF802200E
:1013E000B5FBF0F2B2FBF0F300FB13228DF8032003
:1013F000B1FBF4F2B2FBF0F42E2300FB14228DF8C3
:1014000005308DF80620B1FBF6F2B2FBF0F400FBDC
:1014100014228DF80720B1FBF0F2B2FBF0F400FBD0
:1014200014228DF80820B1FBF0F200FB12108DF8A9
:1014300009000DEB0A044546694684F80680002041
:101440000A5C30320A54401C0A28F9DB8DF805305A
:10145000CBF105004218A5710C2348460499FFF70B
:1014600065FE70E770B500EB4000400615460024AD
:10147000000EFFF775FD714905EB450001EB4005D6
:101480002819012190F86000FFF735FD641C062C37
:10149000F6DB70BD70B500EB400040061546002439
:1014A000000EFFF75DFD654905EB450001EB4005CA
:1014B0000121285DFFF71FFD641C062CF8DB70BDC1
:1014C0002DE9F04164260A23451C841C8846002A25
:1014D0000EDA514291FBF6F206FB121292FBF3F286
:1014E000D6B291FBF3F203FB1211CFB20D220CE046
:1014F00092FBF6F106FB112191FBF3F1CEB292FBC8
:10150000F3F103FB1121CFB20B224146FFF7C2FFDB
:10151000E8B232464146FFF7A5FFE0B23A464146FF
:10152000BDE8F0419EE72DE9F04714008A464FF0F0
:101530000A084FF0640900F1030700F1020600F108
:10154000010502D554420D2200E00B22FFF7A2FF55
:10155000404694FBF0F108FB1141CAB294FBF0F154
:1015600091FBF8F308FB131000F0FF0894FBF9F06F
:10157000C4B2F8B25146FFF775FFF0B24246514689
:10158000FFF770FFE8B222465146BDE8F04769E731
:101590002DE9F04188460446002A00DA52424FF411
:1015A0007A7092FBF0F392FBF0F100FB13236420BE
:1015B00093FBF0F3DEB292FBF0F300FB13230A205F
:1015C00093FBF0F3DDB292FBF0F300FB1320C9B202
:1015D000C7B20A4641462046FFF744FF601CC0B22E
:1015E00032464146FFF73EFFA01CC0B22A464146A4
:1015F000FFF738FFE41CE0B23A464146BDE8F0414F
:1016000030E72DE9F047044642F210708946B2FBFC
:10161000F0F3B2FBF0F100FB13234FF47A70B3FB4D
:10162000F0F303F0FF08B2FBF0F300FB1323642098
:10163000B3FBF0F3C9B203E00088C340BC800008EC
:10164000DEB2B2FBF0F300FB13230A20B3FBF0F58C
:10165000B2FBF0F300FB13270A4649462046FFF78A
:1016600001FF601CC0B242464946FFF7FBFEA01CCA
:10167000C0B232464946FFF7F5FEE01CC0B22A462A
:101680004946FFF7EFFE241DE0B23A464946BDE861
:10169000F047E7E638B50121092000F024FD0121DB
:1016A000434800F0C3FB4FF44074ADF800401020F5
:1016B0008DF8030003203F4D8DF80200694628464F
:1016C00000F029FB2146284600F08FFB4FF44870BC
:1016D00000F09AF90021AE20FFF70DFC002108462A
:1016E000FFF709FC00211020FFF705FC0021402036
:1016F000FFF701FC0021B020FFF7FDFB0021812056
:10170000FFF7F9FB0021FF20FFF7F5FB0021A120E7
:10171000FFF7F1FB0021A620FFF7EDFB0021A82039
:10172000FFF7E9FB00213F20FFF7E5FB0021C82080
:10173000FFF7E1FB0021D320FFF7DDFB0021084686
:10174000FFF7D9FB0021D520FFF7D5FB0021802032
:10175000FFF7D1FB0021D820FFF7CDFB00210520AA
:10176000FFF7C9FB0021D920FFF7C5FB0021F120BD
:10177000FFF7C1FB0021DA20FFF7BDFB002112209B
:10178000FFF7B9FB0021DB20FFF7B5FB002130207C
:10179000FFF7B1FB00218D20FFF7ADFB00211420E6
:1017A000FFF7A9FB0021AF20FFF7A5FB38BD000024
:1017B00000023000000C014038B50121042000F087
:1017C00092FC4020ADF8000018208DF803000320A3
:1017D0002D4C8DF802006946204600F09CFA01214C
:1017E000042000F080FC8021ADF8001069462046FE
:1017F00000F091FABDE83840AFF3008030B587B013
:101800000121022000F078FC0024ADF81640C7202A
:10181000ADF81400ADF8124041F61F401B4DADF875
:1018200010008DF8184004A9284600F0D7FEA8152E
:10183000ADF80C006020ADF800000420ADF8040005
:101840000120ADF80A40ADF80200ADF80E40ADF849
:101850000840ADF806406946284600F0F8FE082129
:10186000284601F041FAADF806406946284600F0E6
:1018700023FF0821284601F047FA0121284601F0FC
:1018800055F907B030BD00000008014000040040D9
:1018900070B5012190B0084600F01CFC01214802FF
:1018A00000F021FC344E304601F010FD334800902A
:1018B000334801A90024012581E83100280204945D
:1018C000CDE9054080000790202008900002CDE976
:1018D00009046946304601F066FD0121304601F0F9
:1018E0008CFD8DF830400B948DF831504FF4602012
:1018F000CDE90D04214C8DF83C504C3C0BA9204601
:1019000001F068FB4FF4404000F081FB0523012209
:101910000B21204601F0DEFB0121204601F08CFB6B
:101920000121204601F07EFB204601F098FB204675
:1019300001F09AFB0028FAD1204601F09CFB2046DA
:1019400001F09EFB0028FAD10121204601F09FFB07
:1019500010B070BD08B50121102000F0C4FB0220BA
:10196000ADF8000000208DF803006946054800F03E
:10197000D2F9BDE808408BE7080002404C24014042
:10198000BA0300200010014010B503F0D4F901287B
:1019900003D0BDE8104004F05EB810BD10B50420BF
:1019A00000F04FF92B482C492C4A0068B0FBF1F3AA
:1019B000B0FBF1F14FF47A70414313700120508075
:1019C0004FF0E020026942F00202026141610169C8
:1019D00041F00101016110BD70B54FF0E02500211B
:1019E0006C691E4AAB6912785043AA699A42FCD0CE
:1019F00002D2A3EB020302E0A4EB02063344194433
:101A000013468142F1D370BD70B5044603F093F9DB
:101A100001280CD0114D6888844203D3B4FBF0F048
:101A200002F0F4FC6888B4FBF0F100FB11444FF4C1
:101A30007A706043BDE87040CEE770B5054600247B
:101A40004FF47A7603E03046FFF7C6FF641CAC42E1
:101A5000F9D370BD2400002040420F00BC030020D9
:101A6000704741490A885206FCD53F4AC1B2121D4F
:101A70001180704730B5054687B0012144F204005B
:101A800000F031FB4FF40070ADF8100003208DF82A
:101A900012001820354C8DF8130004A9204600F0E0
:101AA0003AF92115ADF8101004208DF8130004A99F
:101AB000204600F030F925208DF8140007208DF81D
:101AC000150000248DF8164001208DF8170005A898
:101AD00000F077F8ADF80440ADF80640ADF80840E6
:101AE000ADF80C400C20204CADF80A00009569467A
:101AF000204600F077FB012240F22551204600F0FD
:101B0000EEFB0121204600F0E0FB07B030BD70B5D0
:101B1000154C40F22551204600F098FC00280ED0CC
:101B2000204600F02CFC124AC1B21088030406D4EF
:101B300044044FF0000306D50A2901D0138070BD7C
:101B400040F400400DE00D2909D0C0F30D04094D0B
:101B5000401C80B229551080C728EFD870BD40F4D2
:101B60008040108070BD0000003801400008014036
:101B7000C00300205004002009488047094800475E
:101B8000FEE7FEE7FEE7FEE7FEE7FEE7FEE7FEE72D
:101B9000FEE7FEE704480549054A064B704700008A
:101BA000CD06000831010008C8580020C85E00209A
:101BB000C85A0020C85A002028490843284908600C
:101BC000704730B50F23C27801780125F2B1244A5D
:101BD000126801F1E02102F4E062C2F5E062120A4B
:101BE000C2F10404D3404278A24084781C401443DC
:101BF000220181F80024007800F01F018D40400987
:101C0000800000F1E020C0F8005130BD01F01F005D
:101C100085404809800000F1E020C0F8805130BDC7
:101C2000104A114001430E48001F016070470C4AE2
:101C3000121D0029116801D0014300E081431160A9
:101C400070474FF0E0210428086903D020F0040019
:101C50000861704740F00400FAE700000000FA0550
:101C60000CED00E080FFFF1F8F4910B5884206D1C0
:101C70000121042000F049FA002104203BE08B49B7
:101C8000884206D10121082000F03FFA00210820F7
:101C900031E08749884206D10121102000F035FA51
:101CA0000021102027E08349884206D1012120200D
:101CB00000F02BFA002120201DE07F49884206D148
:101CC0000121402000F021FA0021402013E07B494F
:101CD000884206D10121802000F017FA00218020DF
:101CE00009E0774988420AD184150121204600F095
:101CF0000CFA00212046BDE8104000F006BA10BDE5
:101D000010B50121084600F000FA0021BDE810409E
:101D1000012000F0FAB9F0B5CC78002204F00F03EE
:101D2000E40601D58C7823430C784FF00F0C14F0A7
:101D3000FF0F4FF0010E1BD005680E880EFA02F45B
:101D40002640A64210D196000CFA06F725EA0707AE
:101D500003FA06F5CE783D43282E02D0482E02D055
:101D600002E0446100E00461521C082AE5D30560EA
:101D70000A88FF2A1CD94468002202F108060EFADC
:101D800006F50E882E40AE420ED196000CFA06F7EC
:101D9000BC4303FA06F7CE783C43282E00D14561B8
:101DA000CE78482E00D10561521C082AE5D3446044
:101DB000F0BD4FF6FF710180022181700421C170D6
:101DC00070470246002092680A4200D00120704706
:101DD000806880B2704702460020D2680A4200D074
:101DE00001207047C06880B270470161704741614F
:101DF00070470AB10161704741617047C160704727
:101E000041F48032826181618261816980697047B9
:101E10002C4B10B51A684FF68074224042EA00102D
:101E20000843186010BD2849C8617047F0B5254CBB
:101E3000002801DAE36900E06368450D2E0185B2F0
:101E4000C0F30157B540C0F30342032F05D0C602CB
:101E50000AD503269640B34307E023F07062636817
:101E600023F07063636002E0AB4343F0706201B142
:101E70002A43002801DAE261F0BD6260F0BD10B5CE
:101E80008A0721F003040F49120F21440F238C68A5
:101E900093409C438C608B68904003438B6010BDE3
:101EA0000949C1F8DC00704700080140000C0140FE
:101EB000001001400014014000180140001C0140C6
:101EC000002001400000014000002042A5480168B8
:101ED00041F0010101604168A34A1140416001687D
:101EE000A24A11400160016821F48021016041682B
:101EF00021F4FE0141604FF41F0181607047994950
:101F00000A6822F480320A600A6822F480220A6099
:101F1000B0F5803F07D0B0F5802F03D1086840F4BA
:101F2000A02008607047086840F48030F9E7034655
:101F3000002059098B4A01290AD002290AD0516A86
:101F400003F01F02012393400B4200D00120704791
:101F50001168F5E7116AF3E718B500204FF4A064A3
:101F600000903120FFF7E3FF0099491C0091A14246
:101F700001D00028F5D03120FFF7D9FF002800D08C
:101F8000012018BD774A116821F0F80141EAC0002C
:101F900010607047764908607047724B5A68084372
:101FA00022F47C12104358607047714908667047EC
:101FB0006C4A516821F00301014351607047694840
:101FC000406800F00C007047664A516821F0F0014B
:101FD000014351607047634A516821F4E061014355
:101FE000516070475F4A516821F4605141EAC00076
:101FF000506070475B4A0029517A01D0014300E0EC
:102000008143517270475A49C1F8D8007047554A08
:10201000516821F440410143516070475149002209
:1020200081F8202081F82020012802D0042802D144
:10203000052081F8200070474E49086070474949E3
:102040000A6A02430A6270474A4944390860704785
:1020500030B5444A5168484B11F00C0103D00429B3
:1020600001D0082901D0036012E05168536801F4DF
:1020700070114FF0020413F4803F04EB914102D041
:1020800053689B0301D53D4B00E03B4B5943016036
:1020900051680F2303EA1111394B5C5C0168E14080
:1020A00041605468072505EA14241C5D21FA04F4F4
:1020B0008460546805EAD4241B5DD940C16052682D
:1020C000032303EA92322E4B1B1F9A5CB1FBF2F101
:1020D000016130BD234A0029516901D0014300E06C
:1020E0008143516170471F4A0029916901D0014322
:1020F00000E08143916170471A4A0029D16901D0FB
:10210000014300E08143D1617047164A0029D1683C
:1021100001D0014300E08143D1607047114A00299A
:10212000116901D0014300E08143116170471149F9
:102130004039086070470E49C86470470949C87142
:1021400070470848416A41F0807141627047054A12
:102150000146002092680A4200D0012070470149E0
:1021600088727047001002400000FFF8FFFFF6FE83
:10217000000042428004424200127A0000093D0001
:10218000CC030020C44910B588420AD101218C0338
:102190002046FFF7BAFF2046BDE810400021FFF7B8
:1021A000B4BFBE49884202D101214C0410E0BC49B1
:1021B000884202D101218C040AE0BA49884202D146
:1021C0000121CC0404E0B84988420AD101210C0560
:1021D0002046FFF7A3FF2046BDE810400021FFF78F
:1021E0009DBF10BD30B50446008A85B00D464CF643
:1021F000FF710840E98801432182A0894EF6F3115E
:102200000840A9882A8911436A8902431143A181A0
:10221000A08A4FF6FF410840A9890143A182684680
:10222000FFF716FF9C48844201D1039800E0029812
:10223000A189090400EBC00101EB0010296801D558
:10224000490000E08900B0FBF1F06422B0FBF2F13C
:1022500009010B096FF018056B4300EB8300A3899C
:102260001D044FF0320306D503EBC000B0FBF2F0C3
:1022700000F0070005E003EB0010B0FBF2F000F007
:102280000F000843208105B030BD4FF416510160A6
:1022900000218180C18001810C22428181817047AF
:1022A00010B5028A4FF2FF031A400B884C88234373
:1022B0008C88C9880C4323431343038210BD00213B
:1022C000018041808180C18070470029818902D0CE
:1022D00041F4005101E021F400518181704710B5B3
:1022E000C1F3421301F01F040121A140012B07D0CB
:1022F000022B07D01430002A026805D00A4304E0FC
:102300000C30F8E71030F6E78A43026010BD002A6F
:10231000828A01D00A4300E08A4382827047028A9F
:1023200022F00F020282028A0A43028270478289E7
:1023300022F40062828182890A43828170470029E7
:10234000818902D041F0020101E021F00201818186
:102350007047028A22F020020282028A0A43028225
:1023600070470029018A02D041F4804101E021F444
:10237000804101827047C1F30801818070478088E5
:10238000C0F308007047818941F0010181817047E5
:10239000028BD2B20283028B42EA01210183704791
:1023A000028B02F47F420283028B0A43028370474E
:1023B0000029818A02D041F0200101E021F02001B2
:1023C000818270470029818A02D041F0100101E02A
:1023D00021F01001818270470029818A02D041F0EA
:1023E000080101E021F008018182704700298189FC
:1023F00002D041F4004101E0C1F30E018181704738
:102400000029818A02D041F4006101E021F40061D9
:1024100081827047828A22F004028282828A0A4381
:10242000828270470029818A02D041F0020101E0D6
:1024300021F00201818270470246002012880A4280
:1024400000D001207047C9430180704770B501F08A
:102450001F0501260024C1F3421306FA05F2012BE1
:102460000FD0022B0FD0838A4FEA1121008813422C
:1024700006FA01F600EA060001D000B10124204668
:1024800070BD8389F0E7038AEEE70A0A01219140D3
:10249000C9430180704700000038014000440040FB
:1024A00000480040004C004000500040F94910B581
:1024B000884202D10121C41486E0B0F1804F09D0D6
:1024C000F54988420DD101210220FFF727FE0021A6
:1024D000022064E001210846FFF720FE00210120D0
:1024E0005DE0EE49884206D101210420FFF716FE87
:1024F0000021042053E0EA49884206D10121082046
:10250000FFF70CFE0021082049E0E649884206D189
:1025100001211020FFF702FE002110203FE0E249D8
:10252000884206D101212020FFF7F8FD002120205C
:1025300035E0DE49884202D10121441444E0DC49FF
:10254000884202D10121CC043EE0DA49884202D11E
:1025500001210C0538E0D849884202D101214C05FF
:1025600032E0D649884206D101214020FFF7D6FD4E
:102570000021402013E0D249884206D10121802069
:10258000FFF7CCFD0021802009E0CE4988420AD126
:10259000841501212046FFF7C1FD00212046BDE83A
:1025A0001040FFF7BBBDC849884202D101210C048D
:1025B0000AE0C649884202D101214C0404E0C44922
:1025C00088420AD101218C042046FFF79EFD204657
:1025D000BDE810400021FFF798BD10BD30B502885E
:1025E000AC4CB24DA0420DD0A8420BD0B0F1804F00
:1025F00008D0A94B984205D0A84B984202D0A84BCE
:10260000984203D122F070034A881A43A54B98429E
:1026100006D0A54B984203D022F44073CA881A43CF
:1026200002808A8882850A880285A0420AD0A84250
:1026300008D0A54A904205D0A44A904202D0A44AAC
:10264000904201D1097A01860121818230BD30B5E5
:10265000028C22F001020284028C8388048B22F017
:10266000020224F073050C882C430D8915434A8817
:102670002A43884DA8420BD08C4DA84208D0924DD9
:10268000A84205D0914DA84202D0914DA8420DD14B
:1026900022F008054A8923F440732A4322F00405F6
:1026A0008A882A438D891D43CB892B4383800483E9
:1026B000C9888186028430BD70B5028C22F0100278
:1026C0000284028C8388048B0D8824F4E6464FF63E
:1026D000FF7404EA052535430E8922F0200204EA3E
:1026E000061616434A8804EA02123243694EB04283
:1026F00002D06E4EB04215D122F080064A8923F4F2
:10270000406304EA0212324322F040068A8804EA57
:10271000021232438E8904EA86061E43CB8904EAFC
:102720008303334383800583C9880187028470BD96
:1027300070B5028C22F480720284028C8388848BB0
:102740000D8824F0730425430E894FF6FF7422F49C
:10275000007204EA062616434A8804EA022232433B
:102760004C4EB04202D0514EB04215D122F4006618
:102770004A8923F4405304EA0222324322F4806659
:102780008A8804EA022232438E8904EA06161E432E
:10279000CB8904EA0313334383808583C988818707
:1027A000028470BD70B5028C22F480520284058CC4
:1027B0008288838B0C8823F4E6464FF6FF7303EA86
:1027C0000424344325F400560D8903EA05353543C6
:1027D0004E8803EA06362E432E4DA84202D0334DD2
:1027E000A84205D122F480458A8903EA82122A434D
:1027F00082808483C988A0F84010068470BD828BD3
:1028000022F440628283828B4FF6FF7303EA012138
:102810000A4382837047828B22F00C028283828B70
:102820000A4382837047028B22F440620283028B48
:102830004FF6FF7303EA01210A4302837047F0B5A4
:10284000048C24F010040484078B048C4FF6FF756D
:1028500027F4734705EA03333B4305EA02221A4390
:102860000C4B05EA011698420ED0104B98420BD043
:10287000B0F1804F08D0084B984205D0074B9842E2
:1028800002D0074B984225D124F02001314341F07A
:10289000100124E0002C014000040040000800402A
:1028A000000C0040001000400014004000340140C3
:1028B000004C01400050014000540140001800400D
:1028C000001C004000200040004001400044014046
:1028D0000048014024F0A0030B4343F010010283A1
:1028E0000184F0BD028B22F00C020283028B0A43AA
:1028F0000283704770B5048C24F001040484058BB6
:10290000048C4FF6FF7606EA0313134325F0F30514
:10291000F84A2B4390420ED0F74A90420BD0B0F1C8
:10292000804F08D0F54A904205D0F54A904202D037
:10293000F44A904202D124F0020201E024F00A029B
:102940000A4342F001010383018470BD2DE9F84F71
:102950000D4604460888E74FDFF89CC3DFF89C83E8
:10296000DFF89C934988AA882B894FF0804A48B3A6
:1029700004282FD04FF6FF760828934632D0208CBB
:102980009E4620F480502084A38B208C06EA0132DE
:10299000009223F4734306EA0B221A4306EA0E332D
:1029A0001343BC420AD0644508D0544506D0444580
:1029B00004D04C4502D0D34A944242D120F4005076
:1029C000009940E02046FFF795FFE9882046BDE8E2
:1029D000F84F87E72046FFF732FFE9882046BDE839
:1029E000F84F20E7208C20F480702084B4F81CE09D
:1029F000208C06EA031306EA01222EF0F30E43EAC6
:102A00000B0343EA0E030092BC420AD0644508D08F
:102A1000544506D0444504D04C4502D0B94A9442AE
:102A200003D120F40070009901E020F420600843F5
:102A300040F48070A3832084E9882046BDE8F84FE5
:102A4000E9E620F40240084340F48050A383208448
:102A5000E9882046BDE8F84FD1E62DE9F0410C4663
:102A6000002649880746012501B90226A288012AC5
:102A700000D10225208823890028384610D0FFF78E
:102A8000DEFEE1883846FFF7CEFE23892A4631462E
:102A90003846FFF72FFFE1883846BDE8F04121E7CF
:102AA000FFF728FFE1883846FFF71CFF23892A46F5
:102AB00031463846FFF7C3FEE1883846BDE8F041AD
:102AC000B1E610B50A884B88CC881A438B8823431B
:102AD0001A430B891A434B8989891A430A43A0F880
:102AE000442010BD4FF6FF71818000210180C1801C
:102AF0004180017270470021018041808180C18046
:102B0000018141818181C181704700210180418023
:102B100001228280C18001817047002101804180B3
:102B20008180C180018141818181704700290188B4
:102B300002D041F0010101E021F001010180704764
:102B4000002930F8441F02D041F4004101E0C1F3F4
:102B50000E0101807047002A828901D00A4300E0FB
:102B60008A4382817047818270471143A0F84810E0
:102B70007047002A828901D00A4300E08A4382819B
:102B80007047018921F0070101817047028922F015
:102B900070020A430281704700B50346FFF7F6FF53
:102BA000188940F00700188100BD70B516460D4623
:102BB000602904464FF0010231460AD0FFF79AFE21
:102BC00029462046FFF7E2FF208940F007002081D8
:102BD00070BDFFF734FEF3E730B504894FF6FF759B
:102BE00005EA03231343E4B20B432343038130BDBF
:102BF00010B50446FFF7F0FF208940F077002081F0
:102C000010BD10B50446FFF7E7FF208940F480406F
:102C1000208110BD018582827047028822F07002F7
:102C20000A430280704770B50589048B068C25F035
:102C300007050D434FF6FC410C4040F201110C43D7
:102C40004FF6FF7101EA031126F0220611433143CA
:102C500005810483018470BD028B22F070020A4357
:102C600002837047028B4FF6FF7322F4E04203EABF
:102C70000121114301837047828B22F070020A43C5
:102C800082837047828B4FF6FF7322F4E04203EA9F
:102C900001211143818370470029018802D041F04E
:102CA000800101E021F080010180704700298188C6
:102CB00002D041F0040101E021F00401818070475D
:102CC0000029818802D041F0080101E021F00801CB
:102CD000818070470029818802D041F0010101E024
:102CE00021F0010181807047028B22F008020A4323
:102CF00002837047002C0140003401400004004072
:102D000000080040000C0040028B4FF6FF7322F4D5
:102D1000006203EA012111430183EAE7828B22F07A
:102D200008020A438283E4E7828B4FF6FF7322F4A2
:102D3000006203EA012111438183DAE7028B22F06A
:102D400004020A430283D4E7028B4FF6FF7322F496
:102D5000806203EA012111430183CAE7828B22F0DA
:102D600004020A438283C4E7828B4FF6FF7322F486
:102D7000806203EA012111438183BAE7028B22F0CA
:102D800080020A430283B4E7028B4FF6FF73C2F35B
:102D90000E0203EA012111430183AAE7828B22F08C
:102DA00080020A438283A4E7828B4FF6FF73C2F34B
:102DB0000E0203EA0121114381839AE7028C22F07B
:102DC00002020A43028494E7028C22F008020A43BA
:102DD00002848EE7028C4FF6FF7322F0200203EA92
:102DE00001111143018484E7028C4FF6FF7322F036
:102DF000800203EA0111114301847AE7028C4FF645
:102E0000FF7322F4007203EA01211143018470E789
:102E1000028C4FF6FF7322F4006203EA0121114392
:102E2000018466E7028C4FF6FF7322F4005203EA36
:102E30000131114301845CE710B50123048C8B4000
:102E40009C430484038C8A401343038410BD10B553
:102E50000423048C8B409C430484038C8A401343DA
:102E6000038410BD30B50124058C00F118038C409B
:102E7000A543058489B108290FD0091FC1F34E006D
:102E80001844016821F4E041016001684FF6FF73C6
:102E900003EA02221143016030BD03EB51000168D7
:102EA00021F0700101600168F4E70029018802D077
:102EB00041F0020101E021F00201018019E700293F
:102EC000018802D041F0040101E021F004010180F9
:102ED0000FE70029818802D041F0800101E021F054
:102EE0008001818005E7028822F0080202800288C2
:102EF0000A430280FDE6828822F070028280828886
:102F00000A438280F5E6028922F0070202810289E3
:102F10000A430281EDE6028922F0800202810289E1
:102F20000A430281E5E68184E3E68185E1E6818664
:102F3000DFE60187DDE68187DBE6A0F84010D8E612
:102F4000028822F44072028002880A430280D0E69E
:102F5000808ECEE6008FCCE6808FCAE6B0F84000C7
:102F6000C7E6808CC5E6008DC3E602460020128AC3
:102F70000A4200D00120BCE6C9430182B9E60246FC
:102F80000020138A92890B4202EA010202D0002A31
:102F900000D00120ADE6C9430182AAE6C54910B5BB
:102FA000884202D1012144150AE0C349884202D176
:102FB0000121041504E0C14988420AD10121CC0352
:102FC0002046FFF7A2F82046BDE810400021FFF799
:102FD0009CB810BD10B54268B94B0C791A400B680B
:102FE00042EA0422134343608268B64B1A40D1E997
:102FF000024323434C7942EA440213438360C26A8A
:10300000097C22F47002491EC9B242EA0151C16230
:1030100010BD00210160017141718160C160012119
:10302000017470470029816802D041F0010101E07C
:1030300021F00101816070470029816802D041F4CC
:10304000807101E021F4807181607047002A42683C
:10305000C9B201D00A4300E08A43426070478168E8
:1030600041F0080181607047014600208968090726
:1030700000D501207047816841F0040181607047EC
:10308000014600208968490700D5012070470029C2
:10309000816802D041F4A00101E021F4A001816027
:1030A0007047014600208968490200D50120704719
:1030B0004268491E22F4604242EA41314160704751
:1030C0000029416802D041F4006101E021F400616F
:1030D0004160704770B5072609290AD9C568A1F172
:1030E0000A0404EB4404A640B543A3401D43C56055
:1030F00007E0056901EB4104A640B543A3401D4329
:1031000005611F23072A09D2446B521E02EB82027B
:1031100093409C4391400C43446370BD0D2A09D2F7
:10312000046BD21F02EB820293409C4391400C43FC
:10313000046370BDC46A0D3A02EB820293409C4363
:1031400091400C43C46270BD0029816802D041F4F3
:10315000801101E021F4801181607047C06C80B261
:10316000704754484C30006870470029416802D0CD
:1031700041F4806101E021F48061416070470029E1
:10318000416802D041F4805101E021F48051416056
:103190007047826822F4E0420A4382607047002947
:1031A000816802D041F4004101E021F400418160D6
:1031B00070470029816802D041F4021101E021F436
:1031C000021181607047014600208968890200D59C
:1031D0000120704770B5072609290AD9C568A1F1F1
:1031E0000A0404EB4404A640B543A3401D43C56054
:1031F00007E0056901EB4104A640B543A3401D4328
:103200000561836BC3F30154121B921C02EB820213
:103210001F249440A34391400B43836370BD826B92
:10322000491E22F4401242EA01518163704708B5F9
:1032300008440090026008BD08B50844283000909A
:10324000006880B208BD42681F4B1A400A434260C2
:103250007047416282627047426822F01F020A434F
:1032600042607047134908310028086802D040F4D2
:10327000000001E020F400000860704702460020D2
:1032800012680A4200D001207047C94301607047AC
:1032900010B50246002054680B0AC9B20C401168F0
:1032A000194202D0002C00D0012010BD6FEA11217C
:1032B000016070470024014000280140003C0140AB
:1032C000FFFEF0FFFDF7F1FFFFFD3FFF01684FF646
:1032D000FE72114001600021016041608160C160A7
:1032E0006A496A4A0839904203D1486840F00F00A1
:1032F00006E0664A1432904204D1486840F0F0007B
:1033000048607047614A2832904203D1486840F4CF
:103310007060F5E75D4A3C32904203D1486840F462
:103320007040EDE7594A5032904203D1486840F46A
:103330007020E5E7554A6432904203D1486840F472
:103340007000DDE7514A7832904203D1486840F07E
:103350007060D5E74E4A111F904203D1086840F0D3
:103360000F0006E04A4A1432904204D1086840F047
:10337000F00008607047464A2832904203D108683E
:1033800040F47060F5E7424A3C32904203D108684D
:1033900040F47040EDE73E4A50329042EAD108686E
:1033A00040F47020E5E730B5026847F6F0739A43C1
:1033B0000C6A8B682343D1E904452C4323438C6971
:1033C0002343CC6923434C6A23438C6A234313432E
:1033D0000360CA6842600A6882604968C16030BDA3
:1033E0000021016041608160C160016141618161D2
:1033F000C16101624162816270470029016802D0A7
:1034000041F0010102E04FF6FE7211400160704789
:10341000002A026801D00A4300E08A430260704734
:1034200041607047406880B2704702460020D1007A
:1034300002D51749083901E01449083909681142D1
:1034400000D001207047C10003D51149091F086051
:1034500070470E4908394860704702460020D10085
:1034600002D50B49083901E00849083909681142B9
:1034700000D001207047C10003D50549091F08602D
:103480007047024908394860704700000800024050
:103490000804024000F108014FF0FF32C0E90112B8
:1034A000C160016100210160704700210161704726
:1034B00042684A6093688B609368596091600861C4
:1034C0000168491C0160704730B50C68621C02D06D
:1034D00000F1080202E0026904E01A4653681D6820
:1034E000A542FAD953684B6099608A6051600861BF
:1034F0000168491C016030BDD0E9013201699A6060
:10350000D0E901235A604A68824201D182684A6048
:10351000002202610868401E0860704770B50D46C1
:10352000040005D140F21B12F2A1F7A002F000FC4A
:1035300002F066FAD4E90F20216802FB00116160F5
:103540000021A1632168A1600A46D4E90F01401E51
:1035500000FB0121E16021464FF0FF3001F8440FEC
:10356000487004F110004DB1FFF794FF04F12400FE
:10357000FFF790FF02F05EFA012070BD216900297B
:10358000F8D001F008FB0028F4D0E3494FF0805058
:103590000860BFF34F8FBFF36F8FEBE72DE9F0416A
:1035A00017460E46050005D14FF4C472D1A1D6A02E
:1035B00002F0BEFBBEB105FB06F0543002F0D0FABB
:1035C00004000ED004F154007EB12060C4E90F560F
:1035D00020460121FFF7A2FF84F850700021204609
:1035E000A164BDE8F0810020E7E72460EEE72DE963
:1035F000F041856B174604460026026C82B1C7B1C4
:10360000E06802F0E5FCE168206C091AE1602268DC
:10361000914202D26168081AE060022F16D017E0CA
:103620002068A8B9606801F0CFFB06460020606002
:103630000EE0A06802F0CCFC216CA0680844A060F9
:103640006168884204D32068A06001E005B16D1E66
:103650006D1CA5633046C4E72DE9F3410F46009881
:103660000026846C2CB940F6CE12A2A1A6A002F0CE
:103670005FFBA06BE16B884205D340F6CF129DA1A2
:10368000A1A002F055FBA06BE16B88420CD294F92B
:1036900045503A4669462046FFF7A9FF0646681C92
:1036A00005D06D1C84F845503046BDE8FC81606A49
:1036B0000028F9D004F1240001F06DFA0028F3D0BD
:1036C0000126F1E72DE9F041044602F099F994F959
:1036D000455004F1240610E0A06C20B100212046E2
:1036E000FFF7BAFF04E0606A48B1304601F053FAD0
:1036F00008B101F00BFB6D1E6DB2002DECDC4FF03C
:10370000FF3684F8456002F095F902F079F994F9F2
:10371000445004F1100709E0206948B1384601F02F
:103720003AFA08B101F0F2FA6D1E6DB2002DF3DC29
:1037300084F84460BDE8F04102F07CB92DE9FF4F08
:1037400083B099468B4604004FF0000605D140F245
:10375000D92268A16CA002F0EBFABBF1000F07D1EF
:10376000206C28B140F2DA2262A167A002F0E0FAF0
:10377000B9F1020F08D1E06B012805D040F2DB223D
:103780005CA161A002F0D4FA01F0D5FA38B905982D
:1037900028B140F2DE2257A15BA002F0C9FA4FF037
:1037A000000A4FF08057DFF8708102F029F9A06B12
:1037B000E16B884206D3B9F1020F03D0059800B33C
:1037C00016B325E04A4659462046FFF710FFA16C84
:1037D00021B149462046FFF73FFF05E0616A19B174
:1037E00004F1240001F0D7F928B1C8F80070BFF344
:1037F0004F8FBFF36F8F02F01DF9012007B0BDE8B6
:10380000F08F02F017F921E0684601F03BFA01263B
:1038100002F010F900F09BFD02F0F2F894F9440078
:10382000401C01D184F844A094F94500401C01D10A
:1038300084F845A002F0FEF805A9684601F033FAC5
:1038400030B12046FFF73EFF00F0F3FC0020D5E743
:1038500002F0D6F8A06BE16B884201D1012500E0AF
:10386000002502F0E7F895B104F11000059901F088
:1038700036F92046FFF726FF00F0DBFC002894D144
:10388000C8F80070BFF34F8FBFF36F8F8DE72046EE
:10389000FFF718FF00F0CDFC87E710B502460021C6
:1038A0000120FFF77BFE041E07D00021416001606C
:1038B0000B460A46C160FFF741FF204610BD10B518
:1038C000040005D140F241220AA10FA002F030FA13
:1038D00001F02EFA6168884220D1E068401EE06065
:1038E00005D100231A4619462046FFF727FF01207D
:1038F00010BD00002E2E5C4672656552544F535C1D
:1039000071756575652E63004572726F723A257325
:103910002C25640D0A00000004ED00E00020E7E71C
:1039200030B4026C0B46002A0BD0C1681144C16050
:103930004468A14201D30168C16030BC184602F05E
:1039400047BB30BC70472DE9FF4F83B09B468A468A
:1039500004004FF0000607D140F2DC42AFF26C01E8
:10396000AFF25C0002F0E4F9BAF1000F09D1206C6B
:1039700038B140F2DD42AFF28401AFF2740002F0E0
:10398000D7F901F0D8F948B9059838B14FF49C62DD
:10399000AFF2A001AFF2900002F0CAF94FF00009B7
:1039A0004FF08057DFF8188602F02AF8A56B35B380
:1039B00051462046E668FFF7B3FFBBF1000F11D078
:1039C000E660606A50B104F1240001F0E4F828B127
:1039D000C8F80070BFF34F8FBFF36F8F02F02AF863
:1039E00001200BE76D1EA563206810B901F09CFA59
:1039F000606020690028F1D004F11000E5E7059827
:103A000008B11EB106E002F015F827E0684601F0A3
:103A100039F9012602F00EF800F099FC01F0F0FFF0
:103A200094F94400401C01D184F8449094F9450075
:103A3000401C01D184F8459001F0FCFF05A96846BF
:103A400001F031F9002820460AD0FFF73BFE00F0D4
:103A5000F0FB204600F0A6FA0028A5D00020CDE615
:103A600000F0A0FAD8B1206830B901F0C9FF606851
:103A700001F06CF901F0DEFF04F12400059901F07A
:103A80002EF82046FFF71EFE00F0D3FB00288BD156
:103A9000C8F80070BFF34F8FBFF36F8F84E72046E5
:103AA000FFF710FE00F0C5FB7EE770B50D46040081
:103AB00007D14FF41E72AFF2C411AFF2B41002F08E
:103AC00037F901F035F96168884204D1E068401C9B
:103AD000E060012070BD00232A4619462046FFF70A
:103AE00032FF0028F6D0E168491CE16070BD70B576
:103AF0000C46050007D140F2BD22AFF20821AFF21B
:103B0000F81002F015F9AC4207D940F2BE22AFF22C
:103B10001C21AFF20C2002F00BF9022200212846F2
:103B2000FFF73CFD002800D0846370BD2DE9F0470D
:103B3000984615468946040007D140F29F32AFF2FD
:103B40004C21AFF23C2002F0F3F8B9F1000F09D19B
:103B5000206C38B14FF46872AFF26821AFF2582090
:103B600002F0E6F8B8F1020F0AD1E06B012807D0A5
:103B700040F2A132AFF28421AFF2742002F0D8F803
:103B800001F07DFF5020EFF3118780F31188BFF320
:103B90004F8FBFF36F8FA06BE16B884207D3B8F1F3
:103BA000020F04D0002087F31188BDE8F08794F954
:103BB0004560424649462046FFF719FD701C04D077
:103BC000761C84F845600120EDE7A06C012620B149
:103BD00041462046FFF740FD06E0606A0028F2D02B
:103BE00004F1240000F0D7FF0028ECD0002DEAD02B
:103BF0002E60E8E72DE9F0410D46040007D140F2C0
:103C00003C42AFF21031AFF2003002F091F8206C7C
:103C100038B14FF48862AFF22431AFF2143002F0C1
:103C200087F8206848B9606838B140F24542AFF281
:103C30003C31AFF22C3002F07BF801F020FF502035
:103C4000EFF3118680F31188BFF34F8FBFF36F8FAF
:103C5000A16BE06B88421FD994F94500491CA16310
:103C6000411C04D0401C84F84500012015E0A06CE4
:103C7000012720B100212046FFF7EEFC06E0606A34
:103C80000028F2D004F1240000F085FF0028ECD0D9
:103C9000002DEAD02F60E8E7002086F31188A0E429
:103CA0002DE9F04790468946040007D14FF4B462ED
:103CB000AFF2C031AFF2B03002F03AF8B9F1000F14
:103CC00009D1206C38B140F2A152AFF2D831AFF235
:103CD000C83002F02DF801F0D2FE5020EFF311872A
:103CE00080F31188BFF34F8FBFF36F8FA66BF6B1D0
:103CF00094F9445049462046FFF712FE761EA6630B
:103D0000681C04D06D1C84F84450012010E0206928
:103D10000028FAD004F1100000F03DFF0028F4D094
:103D2000B8F1000FF1D00121C8F80010EDE7002034
:103D300087F3118839E72DE9F0410E46040007D1D9
:103D400040F2FC52AFF25441AFF2444001F0F0FFB8
:103D50004EB9206C48B140F2FD52AFF26841AFF26B
:103D6000584001F0E5FF206C38B940F2FE52AFF246
:103D70007C41AFF26C4001F0DBFF01F080FE50208F
:103D8000EFF3118580F31188BFF34F8FBFF36F8F6F
:103D9000A06B30B131462046E768FFF7C1FD012036
:103DA000E76085F311881CE410B5040007D140F2E8
:103DB0002F62AFF2C041AFF2B04001F0B9FF01F0A5
:103DC0001FFEA46B01F036FE204691E510B50400FD
:103DD00007D140F24162AFF2E441AFF2D44001F0CA
:103DE000A7FF01F00DFED4E90E10441A01F022FEE7
:103DF00020467DE510B5040007D140F25162AFF2D4
:103E00000C51AFF2FC4001F093FFA06B70E56D4ADE
:103E1000002102EBC1035B68834206D1002042F817
:103E2000310002EBC10148607047491C0829F0D3FA
:103E3000704710B5040007D140F25D62AFF24C51FB
:103E4000AFF23C5001F074FF2046FFF7E0FF204640
:103E5000BDE8104001F0EFBEC06C7047C164704710
:103E600090F85000704710B5040007D140F29372EB
:103E7000AFF28051AFF2705001F05AFFA06B08B161
:103E8000002035E5012033E510B5040007D140F2EC
:103E9000BA72AFF2A051AFF2905001F049FFA06B9F
:103EA000E16B884201D1012022E5002020E510B518
:103EB000444B002253F832401CB1521C082AF9D35B
:103EC00016E543F8321003EBC201486010E510B567
:103ED00000243C4A214602EBC1035B68834202D1C5
:103EE00052F8314002E0491C0829F4D32046FFE48F
:103EF00070B515460E46044601F082FD94F9441053
:103F00000020491C01D184F8440094F94510491C53
:103F100001D184F8450001F08DFDA06B28B92A4637
:103F2000314604F1240000F01AFE2046BDE870403E
:103F3000FFF7C8BB00220421FFF730BB70B50D4668
:103F4000044601F05DFDA06C08B9A06B08B1002427
:103F500001E0A564012401F06DFD204670BD10B59F
:103F60000446806C884201D1A06B08B10020BFE4F8
:103F700001F046FD0020A06401F05CFD0120B7E4E3
:103F800008B500230A4669460093FFF7DCFC009859
:103F900008BD08B500210A4600916946FFF780FE7A
:103FA000009808BD10B5044601F02AFDA06B20B1B1
:103FB000002401F03FFD20469AE40124F9E70000C7
:103FC00004ED00E0180500202DE9F041054601F060
:103FD00017FDFE4EB068401CB0603068FC4F10B159
:103FE000706930B32BE03560B068012827D1002418
:103FF00004EB840007EB8000FFF74CFA641C202CD4
:10400000F6D3F448FFF746FAF2481430FFF742FAC5
:10401000F0482830FFF73EFAEE483C30FFF73AFA16
:10402000EC485030FFF736FAEA4870631430B0635A
:1040300005E03068E96AC06A884200D83560706A75
:104040000121401C70626864E86A32698140114352
:10405000316100EB800007EB8000291DFFF728FA93
:1040600001F0E8FC706900280CD03068E96AC06A89
:10407000884207D2D8494FF080500860BFF34F8F75
:10408000BFF36F8FBDE8F0812DE9FF5F8346DDE967
:104090000E87994616468A46900001F061FD05009C
:1040A0001AD05C2001F05CFD040012D025630021D1
:1040B000CDE90241CDE900874B463246514658468C
:1040C00001F0F4F82046FFF77FFF012004B0BDE8BF
:1040D000F09F284601F0AFFD4FF0FF30F6E770B5D6
:1040E000044601F08DFCB94D04B92C68201DFFF782
:1040F00003FA58B9E06AB64A00EB800152F8211081
:1041000021B901218140286988432861A06A18B13A
:1041100004F11800FFF7F0F9686A401C686228682B
:10412000844208D1AB48211D3C30FFF7C1F96868D3
:10413000401C686007E0A868401EA860204601F0A7
:104140000EF901F0FFF801F075FC6869002812D043
:10415000286884420FD1286B28B140F266429FA1A3
:10416000A3A001F0E5FD9C494FF080500860BFF32B
:104170004F8FBFF36F8F70BD2DE9F041934F002635
:10418000386B38B1B869401CB861F86900B10126D4
:10419000304677E7FD686D1CFD6011D1786B0068D3
:1041A00028B140F6DA128DA191A001F0C1FD786B23
:1041B000B96B7963B863386A401C386201F0C2F8A1
:1041C000B86ADFF80C82854209D3786B006880B149
:1041D000786BC068C468606885420DD2B862386880
:1041E000C06A00EB800158F821000128CDD90126D2
:1041F000CBE74FF0FF30F1E7201DFFF77DF9A06A14
:1042000018B104F11800FFF777F9E06A01213A6963
:1042100081401143396100EB800108EB8100211DD1
:10422000FFF746F9E06A3968C96A8842CDD30126AA
:10423000CBE72DE9F047654D00242746286B28B9C8
:1042400040F2E97265A16AA001F072FD01F0D8FBAD
:10425000286B401E2863286BF0BBA8685D49283195
:104260000126C8B3DFF868918846D8F80010E9B194
:10427000D8F80C00C46804F11800FFF73DF9201DC0
:10428000FFF73AF9E06A2A6906FA00F11143296159
:1042900000EB800109EB8100211DFFF709F9E06ABD
:1042A0002968C96A8842E0D3EE61DEE70CB101F00B
:1042B00049F8AC693CB1FFF75FFF00B1EE61641EE5
:1042C000F9D10020A861E86930B1434901273807D6
:1042D0000860BFF34F8F00E001E0BFF36F8F01F084
:1042E000A9FB3846BDE8F0872DE9F041374E0F466F
:1042F0000446F5683068001DFFF7FEF838B93068ED
:1043000090F82C1001208840316981433161601C94
:1043100008D13FB13168BDE8F0412E485030091D49
:10432000FFF7C6B830682C44AC424460316805D20F
:10433000B06BBDE8F041091DFFF7C6B8706B091DF1
:10434000FFF7C2F8B06A844200D2B4629AE61F480E
:10435000016B491C016370472DE9F0410E460500D1
:104360004FF0000405D140F27A421CA120A001F0D8
:10437000DFFC2EB940F27B4218A11DA001F0D8FC51
:10438000124F386B28B140F27C4214A118A001F002
:10439000CFFCFFF7DCFFFA6828688119904202D948
:1043A000884202D804E0884201D8914200D9012411
:1043B00029601CB1881A0021FFF796FFFFF739FF2B
:1043C000002822D14FF08050034919E0DC0300207F
:1043D00058050020D807002004ED00E02E2E5C4692
:1043E00072656552544F535C7461736B732E630036
:1043F0004572726F723A25732C25640D0A00000015
:104400000860BFF34F8FBFF36F8F3BE610B504001A
:1044100014D0FE49096B39B14FF49A62AFF24401EE
:10442000AFF2340001F084FCFFF791FF0021204639
:10443000FFF75AFFFFF7FDFE002807D1F4494FF0C0
:1044400080500860BFF34F8FBFF36F8F10BD70B502
:10445000050007D140F2FC42AFF28001AFF27000DC
:1044600001F066FCE94E3068854201D1002070BD44
:1044700001F0C6FA6C6901F0DDFA706B844202D07B
:10448000B06B844201D1022070BDE248844204D165
:10449000A86A0028F7D1032070BDDE481438844292
:1044A00002D00CB1012070BD042070BD10B50446CF
:1044B00001F0A6FA0CB9D5480468E46A01F0BAFA2A
:1044C000204610BD10B5044601F0D9FA5020EFF394
:1044D000118180F31188BFF34F8FBFF36F8F0CB939
:1044E000CA480468E06A81F3118810BD2DE9F041E3
:1044F00000260D460446202908D340F28152AFF22F
:104500002411AFF2141001F013FC1F2501F078FA0A
:10451000BE4F04B93C68E06CA8423FD03968854280
:1045200006D98C4207D03968C96AA94202D902E08B
:104530008C4200D10126E16A8846884200D1E562BA
:10454000E564A069002802DBC5F12000A061B24D3E
:1045500008EB8800616905EB8000814215D1201DC0
:10456000FEF7CAFF012120B93A6901FA08F0824337
:104570003A61E06A3A6981401143396100EB800099
:1045800005EB8000211DFEF793FF3EB1A0494FF0DF
:1045900080500860BFF34F8FBFF36F8FBDE8F041CD
:1045A00001F048BA70B5994D286B10B10120E8614F
:1045B00070BD0020E8612869974EB0FA80F0C0F124
:1045C0001F0000EB800456F8240038B940F6F722AB
:1045D000AFF2F811AFF2E81001F0AAFB06EB84008D
:1045E00000F10802416849684160914201D149687F
:1045F0004160C868286070BD70B5044601F000FADB
:10460000824D04B92C68201DFEF776FF58B9E06A88
:10461000814A00EB800152F8211021B9012181402B
:10462000286988432861A06A18B104F11800FEF7D0
:1046300063FF211D7748FEF73BFF01F0FBF9686936
:1046400028B101F0DDF900F07DFE01F0F3F92868F2
:10465000844213D1686990B1286B38B14FF4CB62B2
:10466000AFF28821AFF2782001F062FB68494FF089
:1046700080500860BFF34F8FBFF36F8F70BD6548E8
:10468000A9680068884202D10020286070BDBDE89A
:10469000704087E770B50025040007D140F28262C0
:1046A000AFF2C821AFF2B82001F042FB594960696E
:1046B000884205D1A06A2839884201D000B9012575
:1046C000284670BD70B504002BD0504D2868844238
:1046D00031D001F095F92046FFF7DCFFE8B1201D4D
:1046E000FEF70AFFE06A01212A698140114329612E
:1046F000494900EB800001EB8000211DFEF7D8FE48
:10470000E06A2968C96A884207D341494FF080505E
:104710000860BFF34F8FBFF36F8FBDE8704001F0AB
:1047200089B940F2AC62AFF24C31AFF23C30BDE837
:10473000704001F0FDBA70BD2DE9F0410026040083
:1047400007D140F2E362AFF26C31AFF25C3001F0BE
:10475000EFFA01F094F95020EFF3118580F31188FE
:10476000BFF34F8FBFF36F8F2046FFF793FFF0B17A
:10477000264F386B20B1274804F11801283814E07F
:10478000E06A3968C96A884200D30126201DFEF715
:10479000B3FEE06A01213A698140114339611E4943
:1047A00000EB800001EB8000211DFEF781FE85F308
:1047B0001188304666E4184E4FF08054144D00F0D6
:1047C000D8FD30680128FAD92C60BFF34F8FBFF3B2
:1047D0006F8FF4E71CB50D4800242C30CDE9004064
:1047E000234682220DA10F48FFF74EFC012803D17A
:1047F00000F0E7FE01281BD0401C2BD140F285724F
:10480000AFF22841AFF2184002B00DE0DC03002007
:1048100004ED00E0280800205805002049444C45DC
:1048200000000000B7470008BDE8104001F080BA62
:10483000502080F31188BFF34F8FBFF36F8FFF4875
:104840004FF0FF31816201214161C460BDE81C402D
:1048500001F094B81CBD502080F31188BFF34F8F36
:10486000BFF36F8FF5490020486101F0BDB8F348F0
:10487000C068704710B501F002F9F048C06810BD7B
:10488000EE488068704710B510B104461CB10AE0CC
:10489000EA480468FAE740F68D02AFF2C041AFF291
:1048A000B04001F045FA04F1340010BDF0B50268E3
:1048B00000252AB3426800F1080652684260B242FD
:1048C00001D1536843604268D768426852684260C9
:1048D000B24201D1536843604268D36800229C18F9
:1048E00011F802C094F83440A44503D124B1521CFD
:1048F000102AF4D325B901E01D46FBE7BB42E4D101
:104900002846F0BD2DE9F0410746202501F041FB86
:10491000102807D340F6D702AFF24051AFF2305023
:1049200001F006FAFFF713FDC54E6D1E05EB85007D
:1049300006EB80003946FFF7B9FF04001AD1002DBD
:10494000F3D1BE4D3946686BFFF7B0FF040011D1BB
:104950003946A86BFFF7AAFF04000BD13946B948C6
:10496000FFF7A4FF040005D1B64839461438FFF715
:104970009DFF0446FFF75DFC20460AE42DE9F04761
:104980001E4691460C4607000ED0054605F1340040
:10499000C4E90050E86A2061286BE061686CA0609F
:1049A000207B032803D00AE0A4480568EEE7FFF760
:1049B000CEFCA86A08B102202073FFF73AFC4FF042
:1049C0000008E86CC4E90508052E01D0267303E051
:1049D0003846FFF73CFD2073B9F1000F04D0286B77
:1049E00000F0EDFC20847DE4A4F820807AE42DE939
:1049F000F0478146086892460C460025F8B14868A1
:104A000001F1080640684860B04201D14068486042
:104A1000D0F80C80606842686260B24201D151688F
:104A20006160606805EBC50109EB8101C768534609
:104A300001223846FFF7A2FF6D1C4745EAD1284600
:104A400050E42DE9F04717460A4606460024202583
:104A5000FFF77DFCDFF8E481D8F8080082423AD302
:104A6000DFF8DC916D1E05EB850104EBC40009EB5A
:104A7000810106EB80000122FFF7B9FF0444002DFD
:104A8000F0D104EBC40006EB800002224546D8F8C2
:104A90003410FFF7ACFF044404EBC40006EB8000C5
:104AA0000222A96BFFF7A3FF0444664904EBC4008C
:104AB00006EB800004221439FFF799FF044404EB4D
:104AC000C40006EB800003225E49FFF790FF044418
:104AD0000FB100203860FFF7ACFB204683E770B5CC
:104AE0000D46040007D140F60732AFF21071AFF265
:104AF000007001F01DF95148016820461831FEF799
:104B0000E3FC2846BDE870400121FFF7EDBB2DE92D
:104B1000F04117460E46050007D140F61832AFF2B5
:104B20004471AFF2347001F003F9444C206B38B992
:104B300040F61C32AFF25C71AFF24C7001F0F8F845
:104B4000216846F000408861216828461831FEF748
:104B5000AFFC3846BDE8F0410121FFF7C5BB70B599
:104B600014460E46050007D140F63232AFF294717A
:104B7000AFF2847001F0DCF8304801682846183143
:104B8000FEF796FC0CB14FF0FF3621463046BDE8EB
:104B90007040FFF7A9BB2DE9F041C068C4683CB97B
:104BA00040F66232AFF2CC71AFF2BC7001F0C0F8E7
:104BB00004F118000746FEF79FFC204D286B0126E4
:104BC00060B1204839462838FEF772FCE06A29684F
:104BD000C96A884212D90120EE6116E4201DFEF751
:104BE0008BFCE06A2A6906FA00F111432961144935
:104BF00000EB800001EB8000211DE5E7002004E4CC
:104C000070B50E4D06460C46286B38B940F69A3200
:104C1000AFF63801AFF6280001F08AF844F0004002
:104C20003060F4683CB940F6A232AFF65001AFF6FE
:104C3000400001F07DF8304606E00000DC03002073
:104C40005805002028080020FEF756FC201DFEF71E
:104C500053FCE06A01262A6906FA00F11143296132
:104C6000FD4900EB800001EB8000211DFEF720FCD8
:104C7000E06A2968C96A884202D90120EE6170BDE4
:104C8000002070BD10B5040007D140F6C232AFF667
:104C9000B401AFF6A40001F04BF8F048016A2160BE
:104CA000C068606010BD70B50D46040007D140F6C5
:104CB000CC32AFF6D801AFF6C80001F039F83DB9F3
:104CC00040F6CD32AFF6EC01AFF6DC0001F030F883
:104CD00000F096FEE14AD06829684B1C0FD023688B
:104CE000126A934202D0626882420AD96268801ACC
:104CF000884206D2081A28602046FFF7C3FF002426
:104D000000E0012400F096FE204670BDD34901204A
:104D1000C8617047002800D0806C7047002800D020
:104D20008164704708B9CD480068006B00F047BB4C
:104D3000CA4800687047C948416919B1006B18B189
:104D400000207047012070470220704770B50400B2
:104D500039D0C24DE06A2968C96A884233D2A06955
:104D6000002804DB2868C06AC0F12000A061E06A66
:104D7000B94E00EB8000616906EB800081421FD1D3
:104D8000201DFEF7B9FB012150B9E06A00EB80025B
:104D900056F8222022B92A6901FA00F082432A61DA
:104DA0002868C06AE0622A6981401143296100EBEA
:104DB000800006EB8000211DBDE87040FEF778BB47
:104DC0002868C06AE06270BD70B504004FF000064C
:104DD00040D0A24D2868844207D040F6C862AFF6A2
:104DE0000421AFF6F41000F0A3FF206D38B940F6AF
:104DF000CA62AFF61821AFF6082000F099FF206DC7
:104E0000401E2065E26CE16A914223D010BB201D58
:104E1000FEF772FB9049012250B9E06A00EB800373
:104E200051F8233023B92B6902FA00F083432B6138
:104E3000E06CE062C0F12000A061E06A2B69824072
:104E40001A432A6100EB800001EB8000211DFEF770
:104E50002FFB0126304670BD2DE9FF410027054696
:104E600007707E4881680291806800EBC000800076
:104E700000F076FE06004BD000220299FFF7E1FD1C
:104E8000CDE9020738463AE000EBC00006EB8001AE
:104E9000087B01280FD002280FD003280FD0042848
:104EA0000FD000244968284601F04FF8284601F049
:104EB00070F8202109E05224F4E74224F2E7532459
:104EC000F0E74424EEE72954401C0F28FBD32F546D
:104ED0000544039800EBC00006EB80008268018C5B
:104EE000CDE90012036922465DA1284600F02CFF9F
:104EF000284601F04EF805440398401C039002999F
:104F00008842C1D304B03046BDE8F04100F093BE02
:104F1000BDE8FF81514908680A688069D26A09685A
:104F2000C2F120028A6170474C49086818B10868CC
:104F3000026D521C02650868704770B50C46064643
:104F400000F05EFD454D2868406D80B9296801205C
:104F500081F858005CB101212046FFF7C5F94449AA
:104F60004FF080500860BFF34F8FBFF36F8F00F09A
:104F700061FD00F045FD2868446D002034B116B194
:104F80002968486502E02A68611E5165296881F830
:104F9000580000F04FFD204670BD2DE9F0411E463F
:104FA00015468846074600F02BFD2C4C206890F8EB
:104FB0005800022814D02068416DB943416521682A
:104FC000012081F858005EB101213046FFF78CF9CD
:104FD00027494FF080500860BFF34F8FBFF36F8FAA
:104FE00000F028FD00F00CFD15B12068406D286030
:104FF000206890F8580001280DD02068416D21EA02
:105000000801416501252168002081F8580000F061
:1050100011FD2846B1E40025F5E72DE9F0411F46D2
:1050200090460D4604004FF0010607D141F2FE0202
:10503000AFF65841AFF6484000F07AFE00F0E0FCD1
:105040000FB1606D386094F85800022184F8581050
:10505000B8F1050F1DD20DE058050020DC0300203B
:105060000925630925750925750925750D0A0000AF
:1050700004ED00E0DFE808F00D03060C0A00616DA6
:10508000294301E0616D491C616502E0022803D0FB
:105090006565012802D02AE0002628E0201DFEF7E1
:1050A0002BFACC4DE06A01212A6981401143296124
:1050B000C94900EB800001EB8000211DFEF7F8F9E3
:1050C000A06A38B141F23612AFF6F041AFF6E040D7
:1050D00000F02EFEE06A2968C96A884207D9BF49F4
:1050E0004FF080500860BFF34F8FBFF36F8F00F019
:1050F000A1FC304641E42DE9F0471F46DDF8209041
:1051000092460D4604004FF0010807D141F26912A2
:10511000AFF63851AFF6285000F00AFE00F0AFFCB1
:105120005020EFF3118680F31188BFF34F8FBFF348
:105130006F8F0FB1606D386094F85800022184F8C9
:105140005810BAF1050F0ED2DFE80AF00D03060C75
:105150000A00616D294301E0616D491C616502E04F
:10516000022803D06565012803D031E04FF0000824
:105170002EE0A06A38B141F2B012AFF6A051AFF6FE
:10518000905000F0D5FD934D286B012778B104F1C4
:1051900018019348FEF78CF9E06A2968C96A8842C9
:1051A00016D9B9F1000F12D0C9F8007010E0201D17
:1051B000FEF7A2F9E06A2A6907FA00F111432961B2
:1051C00000EB8001844800EB8100211DE2E7EF61E4
:1051D00086F31188404606E42DE9F0418846040034
:1051E00007D141F2E412AFF60C61AFF6FC5000F0CB
:1051F0009FFD00F044FC5020EFF3118780F31188ED
:10520000BFF34F8FBFF36F8F94F85800022184F8DB
:105210005810616D491C616501282ED1A06A38B112
:1052200041F20A22AFF64C61AFF63C6000F080FD1F
:10523000684D286B012678B104F118016848FEF723
:1052400037F9E06A2968C96A884216D9B8F1000FAF
:1052500012D0C8F8006010E0201DFEF74DF9E06A9A
:105260002A6906FA00F1114329615B4900EB8000CD
:1052700001EB8000211DE2E7EE6187F31188ACE4C9
:1052800010B558B1044600F0BBFB94F85800022852
:1052900007D0002400F0CEFB204610BD4D48046826
:1052A000F1E7002084F858000124F3E72DE9F047E6
:1052B0000E46DDE909841746824691009946089D0D
:1052C000A522206B00F0C9FE6FF00301206B01EBFB
:1052D0008701084420F00707780705D04FF44B7288
:1052E00040A145A000F024FD00202218315C82F886
:1052F0003410315C11B1401C1028F6D3002684F81C
:105300004360202D00D31F25E562C4E91356201DFC
:10531000FEF7CBF804F11800FEF7C7F82461C5F1D9
:1053200020006462A061666584F858604A46514670
:10533000384600F006FB2060B8F1000F01D0C8F835
:10534000004048E72348416B096829B1416BC968AF
:10535000C9684968816270474FF0FF31FAE710B5BC
:105360000446006B00F067FC2046BDE8104000F0EA
:1053700062BC70B51A4E174D14361CE0FEF7E7FFFD
:10538000306820B10024FEF754FFA4B901E00124E5
:10539000F9E700F035FBF068C468201DFEF7ACF8B3
:1053A000A868401EA8606868401E686000F042FB64
:1053B0002046FFF7D4FF68680028DFD170BD0021C8
:1053C00001E0401C491C0278A52AFAD0C1F38F00E5
:1053D00070470000DC0300205805002004ED00E0C9
:1053E000000800202E2E5C4672656552544F535CB7
:1053F0007461736B732E63004572726F723A25731A
:105400002C25640D0A00000070B500244160F74DA2
:105410000061914206D8D11A8269914206D2011DDB
:10542000286907E09A4203D2994201D3012403E09C
:10543000011DE868FEF748F8204670BD2DE9FF47DA
:105440009946DDF830A090460D4606004FF0000763
:1054500005D14FF4D372E6A1EBA000F069FCE34C58
:10546000206880B1CDE900580296062D11DAFFF7C9
:1054700062FC02284FF0000309D000226946206830
:10548000FEF75CF9074604B03846BDE8F08752469F
:10549000F4E700234A466946FEF748FBF2E770B599
:1054A00086B0D24E53E00198002806DADDE9030108
:1054B000029A90470198002849DB039C606910B16B
:1054C000201DFEF719F805A800F04DF905460198D2
:1054D0000A283CD2DFE800F00505053B2738050522
:1054E0003B270298A169034601442A462046FFF75C
:1054F0008BFF00282BD0616A20468847E06901288D
:1055000025D1002000900298A16900234218194675
:105510002046FFF793FFD0B940F22132B4A1BAA0E0
:1055200000F006FC13E00298A06128B94FF44E7217
:10553000AFA1B5A000F0FCFBA0692B4641191A46AB
:105540002046FFF761FF02E0204600F074FB0023D5
:105550001A4601A93068FEF7F6F90028A3D106B073
:1055600070BDA24CE068016839B1002139B100205A
:1055700000F00BF9FFF793FFF4E70121F6E7C068AD
:105580000068F5E710B500F03BFA984C2068A0B928
:10559000A148FDF77FFFA0481430FDF77BFF9E4830
:1055A000E06014302061002210210520FDF7F6FF95
:1055B000206010B199A1FEF77AFCBDE8104000F020
:1055C00039BA1CB50024FFF7DDFF8848006868B1D0
:1055D00086491F20091DCDE9000100234FF4827286
:1055E00090A19248FEF750FD040005D140F233121D
:1055F0007FA185A000F09CFB20461CBD2DE9F04753
:105600000746994616460D462C20DDF820A000F0EE
:10561000A7FA040014D0B8464F46D1462DB94FF42E
:10562000C67283A188A000F083FBFFF7ABFF04F1F3
:105630001801C4F8008081E8E002201DFDF735FF65
:10564000204622E710B5694C606828B94FF4E8722B
:1056500067A16DA000F06CFB606810BD10B5040080
:1056600005D140F2D91262A167A000F061FBA069E8
:1056700010BD10B5040005D140F2E3125CA162A098
:1056800000F056FB606810BD10B5040005D140F273
:10569000ED1257A15CA000F04BFB206810BD10B5C7
:1056A000040005D140F2DA3251A157A000F040FBCE
:1056B00000F0A6F9606908B1012400E0002400F0C0
:1056C000B9F9204610BD10B5040005D140F2EF3203
:1056D00047A14DA000F02CFB00F092F9246A00F0E5
:1056E000A9F9204610BD70B50D46040005D140F261
:1056F000FF323FA144A000F01BFB00F081F92562BE
:10570000BDE8704000F096B97FB56FF0010401AEBE
:10571000009486E8070035481D4600232A4669465E
:105720000068FEF703FA04B070BD2DE9FF412F4C6D
:1057300007469846206815460E4628B940F22B4287
:105740002BA131A000F0F4FA4FF0FF30CDE90007B3
:10575000CDE902650023424669462068FDF7EEFF69
:1057600004B0BDE8F08170B50546FFF780F81F4E24
:105770000446B068844203D200F070F8012000E0D3
:10578000002028602046B46070BDF8B50D4606467E
:10579000FEF7DDFD6846FFF7E6FF0446009810B10E
:1057A000FEF747FDF8BD1148ADB101690968D9B1EF
:1057B0000025311B2A460068FEF79AFBFEF739FDEB
:1057C0000028EFD124494FF080500860BFF34F8F7D
:1057D000BFF36F8FF8BDA642EBD8FEF72AFD214636
:1057E000304600F06EF8F8BD0125E2E7180400200D
:1057F0002E2E5C4672656552544F535C74696D651C
:1058000072732E63000000004572726F723A257346
:105810002C25640D0A0000003C080020546D7251D4
:1058200000000000546D7220537663006355000839
:105830002E2E5C4672656552544F535C74696D65DB
:1058400072732E63000000004572726F723A257306
:105850002C25640D0A00000004ED00E0F8B52F4E81
:1058600027E0C068C4680568201DFDF745FE616A31
:1058700020468847E06901281BD1A0692844A84236
:1058800006D924616060211DF068FDF71DFE10E05F
:1058900000200346014600902A462046FFF7CEFD31
:1058A00038B940F29232AFF27801AFF2640000F002
:1058B0003FFAF06801680029D3D13169C6E90310C5
:1058C000F8BDF8B5054615480E46C068C068C468FE
:1058D000201DFDF711FEE069012818D1A0692B46B3
:1058E000411932462046FFF78FFD80B10020034664
:1058F000014600902A462046FFF7A0FD38B94FF434
:105900000272AFF2D401AFF2C00000F011FA616A86
:1059100001B02046BDE8F040084700001804002010
:1059200069484068401C04D0F42268A172A000F0CD
:10593000FFF9502080F31188BFF34F8FBFF36F8FB3
:10594000FEE710B5031F4FF080741C601B1F21F091
:1059500001011960191F6C4B0B60143940380A6043
:1059600010BD6A484FF47A710068B0FBF1F14FF056
:10597000E020491E41610721016170471CB564495F
:1059800008780190FF20087008788DF800009DF8D5
:1059900000004D4A00F0500010700720906007E0B2
:1059A0009068401E90609DF8000040008DF8000057
:1059B0009DF800000006F3D4107A000200F4E060C5
:1059C0009060019808705348016841F470010160CB
:1059D000016841F070410160FFF7C3FF0020506093
:1059E000FAF73EFC00201CBD37484068B0F57A7FCE
:1059F00005D04FF4B57235A13FA000F099B97047BA
:105A0000502080F31188BFF34F8FBFF36F8F2E4963
:105A10004868401C486001280BD13E481C3800688B
:105A200010F0FF0F05D04FF4BD7228A132A000F096
:105A30007FB9704710B5244C606828B940F28112D4
:105A400022A12DA000F074F96068401E606001D1B1
:105A500080F3118810BD10B5502080F31188BFF37A
:105A60004F8FBFF36F8FFEF787FB20B129494FF0AF
:105A700080501C390860002080F3118810BD10B5DB
:105A8000FAF724FC104C10280CD300F1E02090F819
:105A9000F0032178884205D24FF42A720BA116A098
:105AA00000F046F91B4814380068A16800F4E06073
:105AB000884207D9BDE810404FF42E7203A10EA012
:105AC00000F036B910BD00002C0400202E2E5C46DC
:105AD00072656552544F535C706F727461626C658D
